{
  "contractName": "FundMe",
  "abi": [
    {
      "inputs": [],
      "stateMutability": "nonpayable",
      "type": "constructor"
    },
    {
      "anonymous": false,
      "inputs": [
        {
          "indexed": false,
          "internalType": "address",
          "name": "_from",
          "type": "address"
        },
        {
          "indexed": false,
          "internalType": "uint256",
          "name": "_value",
          "type": "uint256"
        }
      ],
      "name": "NewFund",
      "type": "event"
    },
    {
      "inputs": [
        {
          "internalType": "address",
          "name": "",
          "type": "address"
        }
      ],
      "name": "addressToAmountFunded",
      "outputs": [
        {
          "internalType": "uint256",
          "name": "",
          "type": "uint256"
        }
      ],
      "stateMutability": "view",
      "type": "function",
      "constant": true
    },
    {
      "inputs": [
        {
          "internalType": "uint256",
          "name": "",
          "type": "uint256"
        }
      ],
      "name": "funders",
      "outputs": [
        {
          "internalType": "address",
          "name": "",
          "type": "address"
        }
      ],
      "stateMutability": "view",
      "type": "function",
      "constant": true
    },
    {
      "inputs": [],
      "name": "owner",
      "outputs": [
        {
          "internalType": "address",
          "name": "",
          "type": "address"
        }
      ],
      "stateMutability": "view",
      "type": "function",
      "constant": true
    },
    {
      "inputs": [],
      "name": "fund",
      "outputs": [],
      "stateMutability": "payable",
      "type": "function",
      "payable": true
    },
    {
      "inputs": [],
      "name": "withdraw",
      "outputs": [],
      "stateMutability": "payable",
      "type": "function",
      "payable": true
    }
  ],
  "bytecode": "0x608060405234801561001057600080fd5b50336000806101000a81548173ffffffffffffffffffffffffffffffffffffffff021916908373ffffffffffffffffffffffffffffffffffffffff160217905550610877806100606000396000f3fe60806040526004361061004a5760003560e01c80633ccfd60b1461004f5780633e47d6f3146100595780638da5cb5b14610096578063b60d4288146100c1578063dc0d3dff146100cb575b600080fd5b610057610108565b005b34801561006557600080fd5b50610080600480360381019061007b9190610565565b6102ec565b60405161008d91906105ab565b60405180910390f35b3480156100a257600080fd5b506100ab610304565b6040516100b891906105d5565b60405180910390f35b6100c9610328565b005b3480156100d757600080fd5b506100f260048036038101906100ed919061061c565b61041c565b6040516100ff91906105d5565b60405180910390f35b60008054906101000a900473ffffffffffffffffffffffffffffffffffffffff1673ffffffffffffffffffffffffffffffffffffffff163373ffffffffffffffffffffffffffffffffffffffff1614610196576040517f08c379a000000000000000000000000000000000000000000000000000000000815260040161018d906106cc565b60405180910390fd5b3373ffffffffffffffffffffffffffffffffffffffff166108fc479081150290604051600060405180830381858888f193505050501580156101dc573d6000803e3d6000fd5b5060005b60018054905081101561028957600060018281548110610203576102026106ec565b5b9060005260206000200160009054906101000a900473ffffffffffffffffffffffffffffffffffffffff1690506000600260008373ffffffffffffffffffffffffffffffffffffffff1673ffffffffffffffffffffffffffffffffffffffff168152602001908152602001600020819055505080806102819061074a565b9150506101e0565b50600067ffffffffffffffff8111156102a5576102a4610793565b5b6040519080825280602002602001820160405280156102d35781602001602082028036833780820191505090505b50600190805190602001906102e992919061045b565b50565b60026020528060005260406000206000915090505481565b60008054906101000a900473ffffffffffffffffffffffffffffffffffffffff1681565b6001339080600181540180825580915050600190039060005260206000200160009091909190916101000a81548173ffffffffffffffffffffffffffffffffffffffff021916908373ffffffffffffffffffffffffffffffffffffffff16021790555034600260003373ffffffffffffffffffffffffffffffffffffffff1673ffffffffffffffffffffffffffffffffffffffff16815260200190815260200160002060008282546103da91906107c2565b925050819055507fd043a93f80098cce5e226ea37770ea2e79fdcfd18187fbbbf2cf13c023a9c6113334604051610412929190610818565b60405180910390a1565b6001818154811061042c57600080fd5b906000526020600020016000915054906101000a900473ffffffffffffffffffffffffffffffffffffffff1681565b8280548282559060005260206000209081019282156104d4579160200282015b828111156104d35782518260006101000a81548173ffffffffffffffffffffffffffffffffffffffff021916908373ffffffffffffffffffffffffffffffffffffffff1602179055509160200191906001019061047b565b5b5090506104e191906104e5565b5090565b5b808211156104fe5760008160009055506001016104e6565b5090565b600080fd5b600073ffffffffffffffffffffffffffffffffffffffff82169050919050565b600061053282610507565b9050919050565b61054281610527565b811461054d57600080fd5b50565b60008135905061055f81610539565b92915050565b60006020828403121561057b5761057a610502565b5b600061058984828501610550565b91505092915050565b6000819050919050565b6105a581610592565b82525050565b60006020820190506105c0600083018461059c565b92915050565b6105cf81610527565b82525050565b60006020820190506105ea60008301846105c6565b92915050565b6105f981610592565b811461060457600080fd5b50565b600081359050610616816105f0565b92915050565b60006020828403121561063257610631610502565b5b600061064084828501610607565b91505092915050565b600082825260208201905092915050565b7f4f6e6c7920746865207075626c6973686572206f662074686520636f6e74726160008201527f637420686176652074686973207065726d697373696f6e210000000000000000602082015250565b60006106b6603883610649565b91506106c18261065a565b604082019050919050565b600060208201905081810360008301526106e5816106a9565b9050919050565b7f4e487b7100000000000000000000000000000000000000000000000000000000600052603260045260246000fd5b7f4e487b7100000000000000000000000000000000000000000000000000000000600052601160045260246000fd5b600061075582610592565b91507fffffffffffffffffffffffffffffffffffffffffffffffffffffffffffffffff8214156107885761078761071b565b5b600182019050919050565b7f4e487b7100000000000000000000000000000000000000000000000000000000600052604160045260246000fd5b60006107cd82610592565b91506107d883610592565b9250827fffffffffffffffffffffffffffffffffffffffffffffffffffffffffffffffff0382111561080d5761080c61071b565b5b828201905092915050565b600060408201905061082d60008301856105c6565b61083a602083018461059c565b939250505056fea2646970667358221220f66d790f0ddf4f9ce5906890a314d83fca86105b873b5f2217746202e7d0f3f764736f6c634300080b0033",
  "immutableReferences": {},
  "source": "//SPDX-License-Identifier: MIT\r\n\r\n//Pragma verso 0.8.0\r\npragma solidity ^0.8.0;\r\n\r\n//Contrato FundMe\r\ncontract FundMe {\r\n    //Endereo do proprietrio do contrato\r\n    address public owner;\r\n\r\n    //Lista de doadores\r\n    address[] public funders;\r\n\r\n    //Mapeamento entre doadores e montante total doado\r\n    mapping(address => uint256) public addressToAmountFunded;\r\n\r\n    //Evento para disparar quando houver nova doao\r\n    event NewFund(address _from, uint256 _value);\r\n\r\n    //Construtor\r\n    constructor() {\r\n        //Proprietrio do contrato  quem publica o contrato\r\n        owner = msg.sender;\r\n    }\r\n\r\n    //Funo de doao\r\n    function fund() public payable {\r\n        //Adiciona o doador  lista de funders\r\n        funders.push(msg.sender);\r\n        //Atualiza o montante doada por esse doador\r\n        addressToAmountFunded[msg.sender] += msg.value;\r\n        //Emite evento de nova doao\r\n        emit NewFund(msg.sender, msg.value);\r\n    }\r\n\r\n    //Modificador de funes: apenas proprietrio\r\n    modifier onlyOwner() {\r\n        //Somente o proprietrio pode invocar a funo modificada\r\n        require(\r\n            msg.sender == owner,\r\n            \"Only the publisher of the contract have this permission!\"\r\n        );\r\n        _;\r\n    }\r\n\r\n    //Funo de saque (modificador: apenas proprietrio)\r\n    function withdraw() public payable onlyOwner {\r\n        //Transfere o saldo total para a conta do proprietrio\r\n        payable(msg.sender).transfer(address(this).balance);\r\n        //Para cada um dos fundadores\r\n        for (\r\n            uint256 funderIndex = 0;\r\n            funderIndex < funders.length;\r\n            funderIndex++\r\n        ) {\r\n            //Recupera o endereo do doador a partir da lista de funders\r\n            address funder = funders[funderIndex];\r\n            //Zera o montante doado no mapeamento de montantes totais doados\r\n            addressToAmountFunded[funder] = 0;\r\n        }\r\n        //Reseta a lista de funders\r\n        funders = new address[](0);\r\n    }\r\n}\r\n",
  "sourcePath": "C:\\Users\\Pietro\\Desktop\\BootcampSolidity\\contracts\\FundMe.sol",
  "compiler": {
    "name": "solc",
    "version": "0.8.11+commit.d7f03943.Emscripten.clang"
  },
  "schemaVersion": "3.4.4",
  "updatedAt": "2022-04-04T12:53:37.560Z",
  "networkType": "ethereum",
  "devdoc": {
    "kind": "dev",
    "methods": {},
    "version": 1
  },
  "userdoc": {
    "kind": "user",
    "methods": {},
    "version": 1
  }
}